:100000000C9434000C9451000C9451000C94510049
:100010000C9451000C9451000C9451000C9451001C
:100020000C9451000C9451000C9451000C9451000C
:100030000C9451000C9451000C9451000C945100FC
:100040000C9451000C9451000C9453000C945100EA
:100050000C9451000C9451000C9451000C945100DC
:100060000C9451000C94510011241FBECFEFD8E026
:10007000DEBFCDBF11E0A0E0B1E0E0E4F3E002C0FC
:1000800005900D92AA38B107D9F721E0AAE8B1E0AE
:1000900001C01D92AC38B207E1F70E9436010C9402
:1000A0009E010C9400001F920F920FB60F92112424
:1000B0008F938091C60080938B0181E080938A01A9
:1000C0008F910F900FBE0F901F90189580918B010C
:1000D000803341F4289A80E091E00E9486018AE012
:1000E0000E949601089580918B01813441F42898F3
:1000F00088E091E00E9486018AE00E9496010895BE
:1001000080918B01813341F4299A81E191E00E9431
:1001100086018AE00E949601089580918B018234C5
:1001200041F4299889E191E00E9486018AE00E94C9
:100130009601089580918B01823341F42A9A82E2DC
:1001400091E00E9486018AE00E94960108958091C4
:100150008B01833441F42A988AE291E00E9486015F
:100160008AE00E949601089580918B01833341F4C7
:100170002B9A83E391E00E9486018AE00E94960117
:10018000089580918B01843441F42B988BE391E0A6
:100190000E9486018AE00E949601089580918B0159
:1001A000843341F42C9A84E491E00E9486018AE031
:1001B0000E949601089580918B01853441F42C981A
:1001C0008CE491E00E9486018AE00E9496010895E5
:1001D00080918B01853341F42D9A85E591E00E9451
:1001E00086018AE00E949601089580918B018634F1
:1001F00041F42D988DE591E00E9486018AE00E94ED
:100200009601089580918B01863341F45E9A86E6CB
:1002100091E00E9486018AE00E94960108958091F3
:100220008B01873441F45E988EE691E00E9486014E
:100230008AE00E949601089580918B01873341F4F2
:100240005F9A87E791E00E9486018AE00E9496010A
:10025000089580918B01883441F45F988FE791E095
:100260000E9486018AE00E94960108958FEF84B96A
:1002700080EC8AB90E946B01789488E891E00E9432
:1002800086018AE00E94960180918A018130E1F71F
:100290000E9466000E9480000E949A000E94B400A2
:1002A0000E94CE000E94E8000E9402010E941C01F0
:1002B0000E9473000E948D000E94A7000E94C1004E
:1002C0000E94DB000E94F5000E940F010E9429019C
:1002D00010928A01D9CF1092C50087E68093C4009E
:1002E000E2ECF0E0808186608083E1ECF0E08081E8
:1002F000886180838081806880830895E0ECF0E0ED
:10030000908195FFFDCF8093C6000895CF93DF9332
:10031000EC018881882339F0219690E00E947E01CB
:1003200089918111FACFDF91CF910895E0ECF0E04F
:10033000908195FFFDCF8093C6000895F894FFCF7C
:100340006C656430206F6E006C656430206F66668B
:10035000006C656431206F6E006C656431206F66DF
:1003600066006C656432206F6E006C656432206FCD
:100370006666006C656433206F6E006C65643320C4
:100380006F6666006C656434206F6E006C65643463
:10039000206F6666006C656435206F6E006C656466
:1003A00035206F6666006C656436206F6E006C6584
:1003B0006436206F6666006C656437206F6E006C73
:0A03C000656437206F666600410097
:00000001FF
